{
  "contractName": "Lottery",
  "abi": [
    {
      "inputs": [],
      "stateMutability": "nonpayable",
      "type": "constructor"
    },
    {
      "inputs": [],
      "name": "manager",
      "outputs": [
        {
          "internalType": "address",
          "name": "",
          "type": "address"
        }
      ],
      "stateMutability": "view",
      "type": "function",
      "constant": true
    },
    {
      "inputs": [
        {
          "internalType": "uint256",
          "name": "",
          "type": "uint256"
        }
      ],
      "name": "participants",
      "outputs": [
        {
          "internalType": "address payable",
          "name": "",
          "type": "address"
        }
      ],
      "stateMutability": "view",
      "type": "function",
      "constant": true
    },
    {
      "inputs": [],
      "name": "winner",
      "outputs": [
        {
          "internalType": "address payable",
          "name": "",
          "type": "address"
        }
      ],
      "stateMutability": "view",
      "type": "function",
      "constant": true
    },
    {
      "stateMutability": "payable",
      "type": "receive",
      "payable": true
    },
    {
      "inputs": [],
      "name": "getBalance",
      "outputs": [
        {
          "internalType": "uint256",
          "name": "",
          "type": "uint256"
        }
      ],
      "stateMutability": "view",
      "type": "function",
      "constant": true
    },
    {
      "inputs": [],
      "name": "getRandom",
      "outputs": [
        {
          "internalType": "uint256",
          "name": "",
          "type": "uint256"
        }
      ],
      "stateMutability": "view",
      "type": "function",
      "constant": true
    },
    {
      "inputs": [],
      "name": "selectWinner",
      "outputs": [
        {
          "internalType": "address",
          "name": "",
          "type": "address"
        }
      ],
      "stateMutability": "nonpayable",
      "type": "function"
    },
    {
      "inputs": [],
      "name": "allParticipants",
      "outputs": [
        {
          "internalType": "address payable[]",
          "name": "",
          "type": "address[]"
        }
      ],
      "stateMutability": "view",
      "type": "function",
      "constant": true
    }
  ],
  "bytecode": "0x608060405234801561001057600080fd5b50336000806101000a81548173ffffffffffffffffffffffffffffffffffffffff021916908373ffffffffffffffffffffffffffffffffffffffff160217905550610b15806100606000396000f3fe6080604052600436106100745760003560e01c8063481c6a751161004e578063481c6a751461018a5780634f63c903146101b5578063aacc5a17146101e0578063dfbf53ae1461020b576100f2565b806312065fe0146100f757806333a99e041461012257806335c1d3491461014d576100f2565b366100f257671bc16d674ec80000341461008d57600080fd5b6001339080600181540180825580915050600190039060005260206000200160009091909190916101000a81548173ffffffffffffffffffffffffffffffffffffffff021916908373ffffffffffffffffffffffffffffffffffffffff160217905550005b600080fd5b34801561010357600080fd5b5061010c610236565b60405161011991906109ab565b60405180910390f35b34801561012e57600080fd5b50610137610297565b6040516101449190610913565b60405180910390f35b34801561015957600080fd5b50610174600480360381019061016f9190610764565b610557565b604051610181919061092e565b60405180910390f35b34801561019657600080fd5b5061019f610596565b6040516101ac9190610913565b60405180910390f35b3480156101c157600080fd5b506101ca6105ba565b6040516101d79190610949565b60405180910390f35b3480156101ec57600080fd5b506101f5610648565b60405161020291906109ab565b60405180910390f35b34801561021757600080fd5b50610220610682565b60405161022d919061092e565b60405180910390f35b60008060009054906101000a900473ffffffffffffffffffffffffffffffffffffffff1673ffffffffffffffffffffffffffffffffffffffff163373ffffffffffffffffffffffffffffffffffffffff161461029157600080fd5b47905090565b60008060009054906101000a900473ffffffffffffffffffffffffffffffffffffffff1673ffffffffffffffffffffffffffffffffffffffff163373ffffffffffffffffffffffffffffffffffffffff1614610328576040517f08c379a000000000000000000000000000000000000000000000000000000000815260040161031f9061098b565b60405180910390fd5b60036001805490501015610371576040517f08c379a00000000000000000000000000000000000000000000000000000000081526004016103689061096b565b60405180910390fd5b600061037b610648565b90506000600180549050826103909190610a68565b9050600181815481106103cc577f4e487b7100000000000000000000000000000000000000000000000000000000600052603260045260246000fd5b9060005260206000200160009054906101000a900473ffffffffffffffffffffffffffffffffffffffff16600260006101000a81548173ffffffffffffffffffffffffffffffffffffffff021916908373ffffffffffffffffffffffffffffffffffffffff160217905550600260009054906101000a900473ffffffffffffffffffffffffffffffffffffffff1673ffffffffffffffffffffffffffffffffffffffff166108fc61047b610236565b9081150290604051600060405180830381858888f193505050501580156104a6573d6000803e3d6000fd5b50600067ffffffffffffffff8111156104e8577f4e487b7100000000000000000000000000000000000000000000000000000000600052604160045260246000fd5b6040519080825280602002602001820160405280156105165781602001602082028036833780820191505090505b506001908051906020019061052c9291906106a8565b50600260009054906101000a900473ffffffffffffffffffffffffffffffffffffffff169250505090565b6001818154811061056757600080fd5b906000526020600020016000915054906101000a900473ffffffffffffffffffffffffffffffffffffffff1681565b60008054906101000a900473ffffffffffffffffffffffffffffffffffffffff1681565b6060600180548060200260200160405190810160405280929190818152602001828054801561063e57602002820191906000526020600020905b8160009054906101000a900473ffffffffffffffffffffffffffffffffffffffff1673ffffffffffffffffffffffffffffffffffffffff16815260200190600101908083116105f4575b5050505050905090565b60004442600180549050604051602001610664939291906108d6565b6040516020818303038152906040528051906020012060001c905090565b600260009054906101000a900473ffffffffffffffffffffffffffffffffffffffff1681565b828054828255906000526020600020908101928215610721579160200282015b828111156107205782518260006101000a81548173ffffffffffffffffffffffffffffffffffffffff021916908373ffffffffffffffffffffffffffffffffffffffff160217905550916020019190600101906106c8565b5b50905061072e9190610732565b5090565b5b8082111561074b576000816000905550600101610733565b5090565b60008135905061075e81610ac8565b92915050565b60006020828403121561077657600080fd5b60006107848482850161074f565b91505092915050565b600061079983836107a5565b60208301905092915050565b6107ae81610a22565b82525050565b6107bd81610a22565b82525050565b6107cc81610a10565b82525050565b60006107dd826109d6565b6107e781856109ee565b93506107f2836109c6565b8060005b8381101561082357815161080a888261078d565b9750610815836109e1565b9250506001810190506107f6565b5085935050505092915050565b600061083d601f836109ff565b91507f5468657265206d7573742062652061746c65617374203320706c6179657273006000830152602082019050919050565b600061087d6017836109ff565b91507f596f7520617265206e6f7420746865206d616e616765720000000000000000006000830152602082019050919050565b6108b981610a54565b82525050565b6108d06108cb82610a54565b610a5e565b82525050565b60006108e282866108bf565b6020820191506108f282856108bf565b60208201915061090282846108bf565b602082019150819050949350505050565b600060208201905061092860008301846107c3565b92915050565b600060208201905061094360008301846107b4565b92915050565b6000602082019050818103600083015261096381846107d2565b905092915050565b6000602082019050818103600083015261098481610830565b9050919050565b600060208201905081810360008301526109a481610870565b9050919050565b60006020820190506109c060008301846108b0565b92915050565b6000819050602082019050919050565b600081519050919050565b6000602082019050919050565b600082825260208201905092915050565b600082825260208201905092915050565b6000610a1b82610a34565b9050919050565b6000610a2d82610a34565b9050919050565b600073ffffffffffffffffffffffffffffffffffffffff82169050919050565b6000819050919050565b6000819050919050565b6000610a7382610a54565b9150610a7e83610a54565b925082610a8e57610a8d610a99565b5b828206905092915050565b7f4e487b7100000000000000000000000000000000000000000000000000000000600052601260045260246000fd5b610ad181610a54565b8114610adc57600080fd5b5056fea26469706673582212205d74d694f4c335a9125a969bff4cbc848c916cd7f69bc5c995f8a4e98b0d670f64736f6c63430008000033",
  "immutableReferences": {},
  "source": "// SPDX-License-Identifier: GPL-3.0\r\n\r\npragma solidity >=0.8.0 <0.9.0;\r\n\r\ncontract Lottery {\r\n    address public manager;\r\n    address payable[] public participants;\r\n    address payable public winner;\r\n\r\n    constructor() {\r\n        manager = msg.sender; // global variable\r\n    }\r\n\r\n    receive() external payable {\r\n        require(msg.value == 2 ether);\r\n        participants.push(payable(msg.sender));\r\n    }\r\n\r\n    function getBalance() public view returns (uint256) {\r\n        require(msg.sender == manager);\r\n        return address(this).balance;\r\n    }\r\n\r\n    function getRandom() public view returns (uint256) {\r\n        return\r\n            uint256(\r\n                keccak256(\r\n                    abi.encodePacked(\r\n                        block.difficulty,\r\n                        block.timestamp,\r\n                        participants.length\r\n                    )\r\n                )\r\n            );\r\n    }\r\n\r\n    function selectWinner() public returns (address) {\r\n        require(msg.sender == manager, \"You are not the manager\");\r\n        require(participants.length >= 3, \"There must be atleast 3 players\");\r\n\r\n        uint256 randomNum = getRandom();\r\n        uint256 indexVal = randomNum % participants.length;\r\n\r\n        winner = participants[indexVal];\r\n        winner.transfer(getBalance());\r\n\r\n        participants = new address payable[](0);\r\n\r\n        return winner;\r\n    }\r\n\r\n    function allParticipants() public view returns (address payable[] memory) {\r\n        return participants;\r\n    }\r\n}\r\n",
  "sourcePath": "C:\\Users\\deves\\DEVESH\\LearnBlockchain\\Lottery_dApp\\contracts\\Lottery.sol",
  "compiler": {
    "name": "solc",
    "version": "0.8.0+commit.c7dfd78e.Emscripten.clang"
  },
  "schemaVersion": "3.4.14",
  "updatedAt": "2023-07-27T14:01:10.553Z",
  "networkType": "ethereum",
  "devdoc": {
    "kind": "dev",
    "methods": {},
    "version": 1
  },
  "userdoc": {
    "kind": "user",
    "methods": {},
    "version": 1
  }
}